:100000000C942A000C9434000C9434000C943400AA
:100010000C9434000C9434000C9434000C94340090
:100020000C9434000C9434000C9434000C94340080
:100030000C9434000C9434000C9434000C94340070
:100040000C9434000C9434000C9434000C94340060
:100050000C94340011241FBECFE5D4E0DEBFCDBF29
:100060000E9436000C9460000C9400008FEF84BB5B
:10007000B1E020E533ECA2E0F4E0E8E070E160E21A
:1000800050E440E8B5BBC9010197F1F7A5BBC90130
:100090000197F1F7F5BBC9010197F1F7E5BBC9017C
:1000A0000197F1F775BBC9010197F1F765BBC9016C
:1000B0000197F1F755BBC9010197F1F745BBE2CFB5
:0400C000F894FFCFE2
:00000001FF
